:02000000ED29E8
:10000800FF00030E8301E0000A08DF008A01700880
:10001800A4007108A3007208A2007C08A1007D0852
:10002800A0000408A5008C120C10DB015B08A03EA0
:10003800E700E8015D21670884007008800003304C
:10004800FC009730FD00FD0B2728FC0B272800003B
:1000580000005B08313A03193328DB0A1A28240800
:10006800F0002308F1002208F2002108FC00200813
:10007800FD00250884005F088A00600E8300FF0EDB
:040088007F0E0900DE
:06008C0000000000080066
:100092000F3083120313FC004730FD00FD0B4F2885
:0A00A200FC0B4F28000000000800CE
:0E00AC00213083120313FD00FD0B5A280800BB
:1000BA0083120313E61B6328881364288817661BB8
:1000CA006828081369280817E61A6D2888126E2806
:1000DA008816661A72280812732808162E187728A6
:1000EA00091578280911891446208910E6197F28EC
:1000FA008813802888176619842808138528081702
:10010A00E618892888128A28881666188E280812FE
:10011A008F2808162E18932809159428091189146E
:10012A00462089102E1C9B2849209C28562008000E
:10013A000E3083120313FD00FD0BA12800000800F6
:10014A00831203137408003A031DAE28FF30F0002F
:10015A00BE2883120313F8010830FC00700DF80D55
:10016A007408F8020318BB28F8070310F00DFC0BFB
:04017A00B32808009E
:10017E00831203132E106508E6005D202E1408006E
:10018E00831203136208840020308000840A20301A
:10019E008000840A30308000840A8001840A023094
:1001AE006207E3006108003A0319F3280A30F400ED
:1001BE006108F000A5207808F0003030F0076308E1
:1001CE008400700880000A30F4006108F000A52059
:0A01DE007008E100E303D9280800CF
:1001E8008316031398169030831298008316871786
:1001F800071383128C1E03291A08F000FD28080033
:10020800831203136108013A031D0D298030E100B0
:1002180024296108023A031D1429C030E100242969
:100228006108033A031D1B299430E1002429610861
:10023800043A031D2229D430E10024298030E1004A
:100248006203F0006108F0077008E1007008E6003A
:100258005D202E10E4016408630784000008003A5A
:1002680003193E296408630784000008E500BF20DD
:08027800E40A2F292E140800EE
:100280008316031398184629000040298312610839
:0402900099000800C9
:0C02940083120313950117129712080043
:1002A000831203131A08F200981C58291812181602
:0A02B0007208F1007108F000080068
:1002BA00831203139F01C0309F04F03083169F05F9
:1002CA001F179F1783126808F000F00D7010F00DC9
:1002DA007010F00D701070089F041F149D201F15D8
:1002EA001F1D7929000075291F101E08F100F00151
:1002FA0083161E0870048312E9007108EA000030B0
:0C030A00EA046908F0006A08F10008002D
:10031600FF3083120313DC00FF30DD00FF30DE0008
:10032600FF309F01C0309F04F03083169F051F17D2
:080336009F1783121F14080039
:10033E0083160313891009110812881208138813E3
:10034E008312891009118813081388120812492084
:10035E0049204920881608168914462089104920FC
:10036E008914462089104920891446208910492075
:10037E0008128914462089104920891446208910B4
:10038E008812881789144620891049208813081668
:10039E008914462089100812891446208910492094
:1003AE008914462089100816891446208910492080
:1003BE0008128914462089108817081788160816FF
:0C03CE0089144620891049202E140800D4
:1003DA00543083120313B0006530B1007230B2009A
:1003EA006330B3006530B4006930B5007230B600CE
:1003FA006F30B7002030B8005430B9007230BA00FC
:10040A006130BB006230BC006130BD006C30BE00A0
:10041A006830BF006F30C000C1014D30C100693083
:10042A00C2006330C3007230C4006F30C50043306D
:10043A00C6006F30C7006E30C8007430C900723011
:10044A00CA006F30CB006C30CC006130CD00643014
:10045A00CE006F30CF007230D000D101D1014530CB
:10046A00A6007830A7006530A8006D30A90070306A
:10047A00AA006C30AB006F30AC00AD0112109210C4
:10048A00121492106330831692004A21AF01DA01E6
:10049A0083168701831287018B21333083169900D3
:1004AA001815F4209F210130E6005D200C30E6008B
:1004BA005D200130E1000630E2005130E300042102
:1004CA000230E1000630E2002630E3000421153054
:1004DA00FB004B30FC00BE30FD00FD0B722AFC0B0A
:1004EA00722AFB0B722A00000130E6005D200130FF
:1004FA00E1000130E2003030E30004211530FB0056
:10050A004B30FC00BE30FD00FD0B892AFC0B892A0A
:10051A00FB0B892A00000130E6005D208316860164
:10052A0083128601DB018B170B1783168C16831235
:10053A008F018E0190010230E1000130E20041306A
:10054A00E300042150217008DA0070084C3A031DB8
:10055A00C72AAF012F08E1003030E200C72001307E
:10056A00E1000130E2003030E30004212F08A03E10
:10057A0084000008E10040212F08313A0319C72AF4
:08058A00AF0AAF2AA02AC82A1B
:02400E004A2F37
:00000001FF
